{
  "_format": "hh-sol-artifact-1",
  "contractName": "Twitter",
  "sourceName": "contracts/Twitter.sol",
  "abi": [
    {
      "inputs": [],
      "stateMutability": "nonpayable",
      "type": "constructor"
    },
    {
      "anonymous": false,
      "inputs": [
        {
          "indexed": false,
          "internalType": "uint256",
          "name": "id",
          "type": "uint256"
        },
        {
          "indexed": true,
          "internalType": "address",
          "name": "_author",
          "type": "address"
        },
        {
          "indexed": false,
          "internalType": "string",
          "name": "_content",
          "type": "string"
        }
      ],
      "name": "TweetCreated",
      "type": "event"
    },
    {
      "anonymous": false,
      "inputs": [
        {
          "indexed": true,
          "internalType": "address",
          "name": "liker",
          "type": "address"
        },
        {
          "indexed": true,
          "internalType": "address",
          "name": "tweetAuthor",
          "type": "address"
        },
        {
          "indexed": false,
          "internalType": "uint256",
          "name": "tweetId",
          "type": "uint256"
        },
        {
          "indexed": false,
          "internalType": "uint256",
          "name": "newLikeCount",
          "type": "uint256"
        }
      ],
      "name": "TweetLiked",
      "type": "event"
    },
    {
      "anonymous": false,
      "inputs": [
        {
          "indexed": true,
          "internalType": "address",
          "name": "unliker",
          "type": "address"
        },
        {
          "indexed": true,
          "internalType": "address",
          "name": "tweetAuthor",
          "type": "address"
        },
        {
          "indexed": false,
          "internalType": "uint256",
          "name": "tweetId",
          "type": "uint256"
        },
        {
          "indexed": false,
          "internalType": "uint256",
          "name": "newLikeCount",
          "type": "uint256"
        }
      ],
      "name": "TweetUnliked",
      "type": "event"
    },
    {
      "inputs": [],
      "name": "MAX_TWEET_LENGTH",
      "outputs": [
        {
          "internalType": "uint16",
          "name": "",
          "type": "uint16"
        }
      ],
      "stateMutability": "view",
      "type": "function"
    },
    {
      "inputs": [
        {
          "internalType": "uint16",
          "name": "newTweetLength",
          "type": "uint16"
        }
      ],
      "name": "changeTweetLength",
      "outputs": [],
      "stateMutability": "nonpayable",
      "type": "function"
    },
    {
      "inputs": [
        {
          "internalType": "string",
          "name": "_tweet",
          "type": "string"
        }
      ],
      "name": "createTweet",
      "outputs": [],
      "stateMutability": "nonpayable",
      "type": "function"
    },
    {
      "inputs": [
        {
          "internalType": "address",
          "name": "_owner",
          "type": "address"
        }
      ],
      "name": "getAllTweets",
      "outputs": [
        {
          "components": [
            {
              "internalType": "uint256",
              "name": "id",
              "type": "uint256"
            },
            {
              "internalType": "address",
              "name": "author",
              "type": "address"
            },
            {
              "internalType": "string",
              "name": "content",
              "type": "string"
            },
            {
              "internalType": "uint256",
              "name": "timestamp",
              "type": "uint256"
            },
            {
              "internalType": "uint256",
              "name": "likes",
              "type": "uint256"
            }
          ],
          "internalType": "struct Twitter.Tweet[]",
          "name": "",
          "type": "tuple[]"
        }
      ],
      "stateMutability": "view",
      "type": "function"
    },
    {
      "inputs": [
        {
          "internalType": "address",
          "name": "_owner",
          "type": "address"
        },
        {
          "internalType": "uint256",
          "name": "_i",
          "type": "uint256"
        }
      ],
      "name": "getTweet",
      "outputs": [
        {
          "components": [
            {
              "internalType": "uint256",
              "name": "id",
              "type": "uint256"
            },
            {
              "internalType": "address",
              "name": "author",
              "type": "address"
            },
            {
              "internalType": "string",
              "name": "content",
              "type": "string"
            },
            {
              "internalType": "uint256",
              "name": "timestamp",
              "type": "uint256"
            },
            {
              "internalType": "uint256",
              "name": "likes",
              "type": "uint256"
            }
          ],
          "internalType": "struct Twitter.Tweet",
          "name": "",
          "type": "tuple"
        }
      ],
      "stateMutability": "view",
      "type": "function"
    },
    {
      "inputs": [
        {
          "internalType": "address",
          "name": "_author",
          "type": "address"
        },
        {
          "internalType": "uint256",
          "name": "_id",
          "type": "uint256"
        }
      ],
      "name": "likeTweet",
      "outputs": [],
      "stateMutability": "nonpayable",
      "type": "function"
    },
    {
      "inputs": [],
      "name": "owner",
      "outputs": [
        {
          "internalType": "address",
          "name": "",
          "type": "address"
        }
      ],
      "stateMutability": "view",
      "type": "function"
    },
    {
      "inputs": [
        {
          "internalType": "address",
          "name": "",
          "type": "address"
        },
        {
          "internalType": "uint256",
          "name": "",
          "type": "uint256"
        }
      ],
      "name": "tweets",
      "outputs": [
        {
          "internalType": "uint256",
          "name": "id",
          "type": "uint256"
        },
        {
          "internalType": "address",
          "name": "author",
          "type": "address"
        },
        {
          "internalType": "string",
          "name": "content",
          "type": "string"
        },
        {
          "internalType": "uint256",
          "name": "timestamp",
          "type": "uint256"
        },
        {
          "internalType": "uint256",
          "name": "likes",
          "type": "uint256"
        }
      ],
      "stateMutability": "view",
      "type": "function"
    },
    {
      "inputs": [
        {
          "internalType": "address",
          "name": "_author",
          "type": "address"
        },
        {
          "internalType": "uint256",
          "name": "_id",
          "type": "uint256"
        }
      ],
      "name": "unlikeTweet",
      "outputs": [],
      "stateMutability": "nonpayable",
      "type": "function"
    }
  ],
  "bytecode": "0x6080604052610118600060146101000a81548161ffff021916908361ffff16021790555034801561002f57600080fd5b50336000806101000a81548173ffffffffffffffffffffffffffffffffffffffff021916908373ffffffffffffffffffffffffffffffffffffffff1602179055506119408061007f6000396000f3fe608060405234801561001057600080fd5b50600436106100935760003560e01c806358bfa4ab1161006657806358bfa4ab1461014857806363378216146101645780636eb10797146101805780637c9cd2bc1461019e5780638da5cb5b146101ba57610093565b806305a1b4a914610098578063112f54e3146100cc57806312e7ee1c146100fc5780633d9b569f1461012c575b600080fd5b6100b260048036038101906100ad9190610d0f565b6101d8565b6040516100c3959493929190610dfd565b60405180910390f35b6100e660048036038101906100e19190610d0f565b6102d3565b6040516100f39190610f35565b60405180910390f35b61011660048036038101906101119190610f57565b610453565b60405161012391906110bc565b60405180910390f35b61014660048036038101906101419190610d0f565b6105f7565b005b610162600480360381019061015d9190611118565b6107af565b005b61017e60048036038101906101799190610d0f565b61085d565b005b6101886109ce565b6040516101959190611154565b60405180910390f35b6101b860048036038101906101b391906112a4565b6109e2565b005b6101c2610bfe565b6040516101cf91906112ed565b60405180910390f35b600160205281600052604060002081815481106101f457600080fd5b9060005260206000209060050201600091509150508060000154908060010160009054906101000a900473ffffffffffffffffffffffffffffffffffffffff169080600201805461024490611337565b80601f016020809104026020016040519081016040528092919081815260200182805461027090611337565b80156102bd5780601f10610292576101008083540402835291602001916102bd565b820191906000526020600020905b8154815290600101906020018083116102a057829003601f168201915b5050505050908060030154908060040154905085565b6102db610c22565b600160008473ffffffffffffffffffffffffffffffffffffffff1673ffffffffffffffffffffffffffffffffffffffff168152602001908152602001600020828154811061032c5761032b611368565b5b90600052602060002090600502016040518060a0016040529081600082015481526020016001820160009054906101000a900473ffffffffffffffffffffffffffffffffffffffff1673ffffffffffffffffffffffffffffffffffffffff1673ffffffffffffffffffffffffffffffffffffffff1681526020016002820180546103b590611337565b80601f01602080910402602001604051908101604052809291908181526020018280546103e190611337565b801561042e5780601f106104035761010080835404028352916020019161042e565b820191906000526020600020905b81548152906001019060200180831161041157829003601f168201915b5050505050815260200160038201548152602001600482015481525050905092915050565b6060600160008373ffffffffffffffffffffffffffffffffffffffff1673ffffffffffffffffffffffffffffffffffffffff168152602001908152602001600020805480602002602001604051908101604052809291908181526020016000905b828210156105ec57838290600052602060002090600502016040518060a0016040529081600082015481526020016001820160009054906101000a900473ffffffffffffffffffffffffffffffffffffffff1673ffffffffffffffffffffffffffffffffffffffff1673ffffffffffffffffffffffffffffffffffffffff16815260200160028201805461054790611337565b80601f016020809104026020016040519081016040528092919081815260200182805461057390611337565b80156105c05780601f10610595576101008083540402835291602001916105c0565b820191906000526020600020905b8154815290600101906020018083116105a357829003601f168201915b5050505050815260200160038201548152602001600482015481525050815260200190600101906104b4565b505050509050919050565b600160008373ffffffffffffffffffffffffffffffffffffffff1673ffffffffffffffffffffffffffffffffffffffff16815260200190815260200160002080549050811061067b576040517f08c379a0000000000000000000000000000000000000000000000000000000008152600401610672906113e3565b60405180910390fd5b6000600160008473ffffffffffffffffffffffffffffffffffffffff1673ffffffffffffffffffffffffffffffffffffffff16815260200190815260200160002082815481106106ce576106cd611368565b5b906000526020600020906005020190506000816004015411610725576040517f08c379a000000000000000000000000000000000000000000000000000000000815260040161071c90611475565b60405180910390fd5b80600401600081548092919061073a906114c4565b91905055508273ffffffffffffffffffffffffffffffffffffffff163373ffffffffffffffffffffffffffffffffffffffff167f762c2616349603ac16eba0de8e6141b79129a07ab63bd99e0a80b3a4717169438484600401546040516107a29291906114ed565b60405180910390a3505050565b60008054906101000a900473ffffffffffffffffffffffffffffffffffffffff1673ffffffffffffffffffffffffffffffffffffffff163373ffffffffffffffffffffffffffffffffffffffff161461083d576040517f08c379a000000000000000000000000000000000000000000000000000000000815260040161083490611562565b60405180910390fd5b80600060146101000a81548161ffff021916908361ffff16021790555050565b600160008373ffffffffffffffffffffffffffffffffffffffff1673ffffffffffffffffffffffffffffffffffffffff1681526020019081526020016000208054905081106108e1576040517f08c379a00000000000000000000000000000000000000000000000000000000081526004016108d8906113e3565b60405180910390fd5b6000600160008473ffffffffffffffffffffffffffffffffffffffff1673ffffffffffffffffffffffffffffffffffffffff168152602001908152602001600020828154811061093457610933611368565b5b9060005260206000209060050201905080600401600081548092919061095990611582565b91905055508273ffffffffffffffffffffffffffffffffffffffff163373ffffffffffffffffffffffffffffffffffffffff167fe8a76fc0f16d11a00d1e93b689b63d76cf60af914dd3d915375dc41d01a0c3c88484600401546040516109c19291906114ed565b60405180910390a3505050565b600060149054906101000a900461ffff1681565b600060149054906101000a900461ffff1661ffff1681511115610a3a576040517f08c379a0000000000000000000000000000000000000000000000000000000008152600401610a319061163c565b60405180910390fd5b6000600160003373ffffffffffffffffffffffffffffffffffffffff1673ffffffffffffffffffffffffffffffffffffffff16815260200190815260200160002080549050905060006040518060a001604052808381526020013373ffffffffffffffffffffffffffffffffffffffff16815260200184815260200142815260200160008152509050600160003373ffffffffffffffffffffffffffffffffffffffff1673ffffffffffffffffffffffffffffffffffffffff1681526020019081526020016000208190806001815401808255809150506001900390600052602060002090600502016000909190919091506000820151816000015560208201518160010160006101000a81548173ffffffffffffffffffffffffffffffffffffffff021916908373ffffffffffffffffffffffffffffffffffffffff1602179055506040820151816002019081610b929190611808565b50606082015181600301556080820151816004015550503373ffffffffffffffffffffffffffffffffffffffff167f5b04dbcff53dfd77771f59e7ba56ec837ac5325729cf7f1dd0ed4aef082a6aab8385604051610bf19291906118da565b60405180910390a2505050565b60008054906101000a900473ffffffffffffffffffffffffffffffffffffffff1681565b6040518060a0016040528060008152602001600073ffffffffffffffffffffffffffffffffffffffff1681526020016060815260200160008152602001600081525090565b6000604051905090565b600080fd5b600080fd5b600073ffffffffffffffffffffffffffffffffffffffff82169050919050565b6000610ca682610c7b565b9050919050565b610cb681610c9b565b8114610cc157600080fd5b50565b600081359050610cd381610cad565b92915050565b6000819050919050565b610cec81610cd9565b8114610cf757600080fd5b50565b600081359050610d0981610ce3565b92915050565b60008060408385031215610d2657610d25610c71565b5b6000610d3485828601610cc4565b9250506020610d4585828601610cfa565b9150509250929050565b610d5881610cd9565b82525050565b610d6781610c9b565b82525050565b600081519050919050565b600082825260208201905092915050565b60005b83811015610da7578082015181840152602081019050610d8c565b60008484015250505050565b6000601f19601f8301169050919050565b6000610dcf82610d6d565b610dd98185610d78565b9350610de9818560208601610d89565b610df281610db3565b840191505092915050565b600060a082019050610e126000830188610d4f565b610e1f6020830187610d5e565b8181036040830152610e318186610dc4565b9050610e406060830185610d4f565b610e4d6080830184610d4f565b9695505050505050565b610e6081610cd9565b82525050565b610e6f81610c9b565b82525050565b600082825260208201905092915050565b6000610e9182610d6d565b610e9b8185610e75565b9350610eab818560208601610d89565b610eb481610db3565b840191505092915050565b600060a083016000830151610ed76000860182610e57565b506020830151610eea6020860182610e66565b5060408301518482036040860152610f028282610e86565b9150506060830151610f176060860182610e57565b506080830151610f2a6080860182610e57565b508091505092915050565b60006020820190508181036000830152610f4f8184610ebf565b905092915050565b600060208284031215610f6d57610f6c610c71565b5b6000610f7b84828501610cc4565b91505092915050565b600081519050919050565b600082825260208201905092915050565b6000819050602082019050919050565b600060a083016000830151610fc86000860182610e57565b506020830151610fdb6020860182610e66565b5060408301518482036040860152610ff38282610e86565b91505060608301516110086060860182610e57565b50608083015161101b6080860182610e57565b508091505092915050565b60006110328383610fb0565b905092915050565b6000602082019050919050565b600061105282610f84565b61105c8185610f8f565b93508360208202850161106e85610fa0565b8060005b858110156110aa578484038952815161108b8582611026565b94506110968361103a565b925060208a01995050600181019050611072565b50829750879550505050505092915050565b600060208201905081810360008301526110d68184611047565b905092915050565b600061ffff82169050919050565b6110f5816110de565b811461110057600080fd5b50565b600081359050611112816110ec565b92915050565b60006020828403121561112e5761112d610c71565b5b600061113c84828501611103565b91505092915050565b61114e816110de565b82525050565b60006020820190506111696000830184611145565b92915050565b600080fd5b600080fd5b7f4e487b7100000000000000000000000000000000000000000000000000000000600052604160045260246000fd5b6111b182610db3565b810181811067ffffffffffffffff821117156111d0576111cf611179565b5b80604052505050565b60006111e3610c67565b90506111ef82826111a8565b919050565b600067ffffffffffffffff82111561120f5761120e611179565b5b61121882610db3565b9050602081019050919050565b82818337600083830152505050565b6000611247611242846111f4565b6111d9565b90508281526020810184848401111561126357611262611174565b5b61126e848285611225565b509392505050565b600082601f83011261128b5761128a61116f565b5b813561129b848260208601611234565b91505092915050565b6000602082840312156112ba576112b9610c71565b5b600082013567ffffffffffffffff8111156112d8576112d7610c76565b5b6112e484828501611276565b91505092915050565b60006020820190506113026000830184610d5e565b92915050565b7f4e487b7100000000000000000000000000000000000000000000000000000000600052602260045260246000fd5b6000600282049050600182168061134f57607f821691505b60208210810361136257611361611308565b5b50919050565b7f4e487b7100000000000000000000000000000000000000000000000000000000600052603260045260246000fd5b7f547765657420646f6573206e6f74206578697374000000000000000000000000600082015250565b60006113cd601483610d78565b91506113d882611397565b602082019050919050565b600060208201905081810360008301526113fc816113c0565b9050919050565b7f596f752063616e6e6f7420756e6c696b6520612074776565742074686174206860008201527f6173206e6f74206265656e206c696b6564000000000000000000000000000000602082015250565b600061145f603183610d78565b915061146a82611403565b604082019050919050565b6000602082019050818103600083015261148e81611452565b9050919050565b7f4e487b7100000000000000000000000000000000000000000000000000000000600052601160045260246000fd5b60006114cf82610cd9565b9150600082036114e2576114e1611495565b5b600182039050919050565b60006040820190506115026000830185610d4f565b61150f6020830184610d4f565b9392505050565b7f596f7520617265206e6f7420746865206f776e65720000000000000000000000600082015250565b600061154c601583610d78565b915061155782611516565b602082019050919050565b6000602082019050818103600083015261157b8161153f565b9050919050565b600061158d82610cd9565b91507fffffffffffffffffffffffffffffffffffffffffffffffffffffffffffffffff82036115bf576115be611495565b5b600182019050919050565b7f5477656574206e6565647320746f20626520323830206368617261637465727360008201527f206f72206c657373000000000000000000000000000000000000000000000000602082015250565b6000611626602883610d78565b9150611631826115ca565b604082019050919050565b6000602082019050818103600083015261165581611619565b9050919050565b60008190508160005260206000209050919050565b60006020601f8301049050919050565b600082821b905092915050565b6000600883026116be7fffffffffffffffffffffffffffffffffffffffffffffffffffffffffffffffff82611681565b6116c88683611681565b95508019841693508086168417925050509392505050565b6000819050919050565b60006117056117006116fb84610cd9565b6116e0565b610cd9565b9050919050565b6000819050919050565b61171f836116ea565b61173361172b8261170c565b84845461168e565b825550505050565b600090565b61174861173b565b611753818484611716565b505050565b5b818110156117775761176c600082611740565b600181019050611759565b5050565b601f8211156117bc5761178d8161165c565b61179684611671565b810160208510156117a5578190505b6117b96117b185611671565b830182611758565b50505b505050565b600082821c905092915050565b60006117df600019846008026117c1565b1980831691505092915050565b60006117f883836117ce565b9150826002028217905092915050565b61181182610d6d565b67ffffffffffffffff81111561182a57611829611179565b5b6118348254611337565b61183f82828561177b565b600060209050601f8311600181146118725760008415611860578287015190505b61186a85826117ec565b8655506118d2565b601f1984166118808661165c565b60005b828110156118a857848901518255600182019150602085019450602081019050611883565b868310156118c557848901516118c1601f8916826117ce565b8355505b6001600288020188555050505b505050505050565b60006040820190506118ef6000830185610d4f565b81810360208301526119018184610dc4565b9050939250505056fea264697066735822122002ea51275ddd2af353c9b037ab2a463429594505ed2c6803b74cb576e6498b4064736f6c63430008180033",
  "linkReferences": {},
  "deployedLinkReferences": {}
}